:100000000C9468000C9485000C9485000C94AB094A
:100010000C94160A0C94700A0C9485000C948500BC
:100020000C9485000C9485000C9485000C9485003C
:100030000C9485000C9485000C9485000C9485002C
:100040000C9485000C94CB0C0C94F80C0C9485004B
:100050000C9485000C9485000C9485000C9485000C
:100060000C9485000C9485009505AA059805AA05B1
:10007000A105AA059B05AA059E05AA05AA05AA052C
:10008000AA05A405AA05AA05AA05A7053A06C10658
:100090004E06C106BE06C1067406C1069D06C1060F
:1000A000C106C106C106B106C106C106C106B80631
:1000B000020772072B0772074F0772073B07720789
:1000C000E006E006E006E00672075F074707FA066B
:1000D00011241FBECFEFD8E0DEBFCDBF13E0A0E0FC
:1000E000B1E0ECEDF0E202C005900D92AA39B10743
:1000F000D9F724E0AAE9B3E001C01D92AE39B207F6
:10010000E1F70E941B0F0C946C100C943D0D81E0E4
:1001100020919B0390919A03921708F480E0089530
:1001200081E090919A03923008F480E0089584E190
:10013000EBE9F3E0DF011D928A95E9F710929A034B
:100140000895AC016623F9F090919A03943150F030
:1001500005C0943151F484E180939A030E94970082
:100160008DE00895DA01460F511D2D91E92FF0E041
:10017000E556FC4F20839F5FA417B50751F7909376
:100180009A0380E0089580E008958BE993E0089554
:10019000CF93DF93EFEAF3E08AE02FEF3FEF9CE0AD
:1001A000318320838283DF011496ED01492F199258
:1001B0004A95E9F774968F5F8E3091F7DF91CF9172
:1001C000089524E1829FC0011124FC01E155FC4FF8
:1001D0002FEF3FEF318320831382FC01ED54FC4F5E
:1001E0002FE0DF011D922A95E9F708950F931F93E1
:1001F000CF93DF93CDB7DEB762970FB6F894DEBF2B
:100200000FBECDBFFE01319682E1DF011D928A95BE
:10021000E9F7E3E0F4E08281898363816A832481E2
:100220009FEF920F9F3020F08CE08B8385E015C00C
:1002300030E0E0911904F0911A040190F081E02D72
:10024000AE014C5F5F4F0995811105C01B82809103
:1002500007048B5F02C08B8385E00FEF13E094E00F
:10026000F80111929A95E9F792E0D80111969C93C2
:1002700011978C93CE01019613969C938E931297AF
:1002800066E574E0C8010E94C606F801608170E06E
:10029000E0911B04F0911C040280F381E02D86E5BF
:1002A00094E0099562960FB6F894DEBF0FBECDBFFD
:1002B000DF91CF911F910F9108950F931F93CF93CB
:1002C000DF9300D01F92CDB7DEB7FE01319683E0F9
:1002D000DF011D928A95E9F7E3E0F4E082818983EA
:1002E00063816A83208130E024503109E091190450
:1002F000F0911A040280F381E02D47E054E0099563
:10030000811102C01B8201C08B830FEF13E084E0D8
:10031000F801982F11929A95E9F7D80111968C93CC
:10032000119785E08C93CE01019613969C938E9342
:10033000129766E574E0C8010E94C606F801608164
:1003400070E0E0911B04F0911C040280F381E02D29
:1003500086E594E009950F900F900F90DF91CF9173
:100360001F910F910895CF93DF93C091AF03D09168
:10037000B003FC01A081B0E0CA17DB0709F447C055
:10038000EFEAF3E09E0190E080E006C074962081E1
:1003900031812A173B07E9F133230CF0982F8F5F47
:1003A0008430A1F73AC02196F1F08091C303909177
:1003B000C403019681F08091D7039091D8030196F0
:1003C00071F08091EB039091EC03019621F583E0AD
:1003D00023E030E00BC081E021E030E007C082E0A4
:1003E00022E030E003C020E030E080E094E1929F22
:1003F000F001939FF00D1124E155FC4FB183A083D0
:10040000DB018C938281FA01808380E009C085E062
:1004100007C085E005C080E003C0933020F285E08E
:10042000DF91CF9108950F931F93CF93DF9300D067
:1004300000D0CDB7DEB7FE01329683E0DF011D921A
:100440008A95E9F7809105048A8390911D04933081
:1004500019F48AE08C830EC0E0911904F0911A041B
:100460000084F185E02DBE016F5F7F4F09958C837D
:1004700089818B830FEF13E085E0F80180838FE0A3
:100480008183CE0102969383828366E574E0C8017E
:100490000E94C606D8016C9170E0E0911B04F091B7
:1004A0001C040280F381E02D86E594E009950F900D
:1004B0000F900F900F90DF91CF911F910F910895A2
:1004C0007F928F929F92AF92BF92CF92DF92EF92E4
:1004D000FF920F931F93CF93DF93CDB7DEB7629751
:1004E0000FB6F894DEBF0FBECDBFFE01319692E18C
:1004F000DF011D929A95E9F7A82EB12CB4E18B9FEC
:10050000F0011124E155FC4F8380882009F47AC062
:10051000762EE4E18E9F8001112401551C4FE12CC1
:1005200029E0F12C34E13A9DC0013B9D900D11244E
:10053000AC014E535C4F6A01D80114968C9114970C
:100540008F3F69F4D6019C91E1E0F0E0EC0FFD1FD4
:10055000EE0DF11D90839F5F9C93E3941BC0E0918F
:100560001904F0911A043097A9F016969C901697EA
:10057000292D30E00190F081E02D41E050E04C0F5A
:100580005D1F4E0D511D15966C910995282F8111F7
:1005900039C0E90CF3940D5F1F4F8F10CDCF77203A
:1005A00089F121112FC08FEF8E0D823158F50FEF99
:1005B00013E0E394E394F801E08284E18A9DF00182
:1005C0008B9DF00D1124E155FC4F8281D8011196CD
:1005D0008C931197CE01019613969C938E9312974C
:1005E00066E574E0C8010E94C606F801608170E00B
:1005F000E0911B04F0911C040280F381E02D86E55C
:1006000094E0099562960FB6F894DEBF0FBECDBF99
:10061000DF91CF911F910F91FF90EF90DF90CF90DE
:10062000BF90AF909F908F907F900895CF92DF9270
:10063000EF92FF920F931F93CF93DF9300D01F92FF
:10064000CDB7DEB70F2EFFEAEF2EF3E0FF2EF02D31
:1006500010E003E0CE0101966C01F601802F1192AB
:100660008A95E9F7F7018081918199239CF060E0F8
:10067000812F0E946002F70180818983E091190433
:10068000F0911A040680F781E02DC6010995812FAB
:100690000E94E1001F5FF4E1EF0EF11C1430E9F657
:1006A0000F900F900F90DF91CF911F910F91FF90BE
:1006B000EF90DF90CF900895833011F00E941603E1
:1006C0000895CF9390911D04933031F4C82F0E9468
:1006D0005C03C0931D0402C080931D04CF91089554
:1006E0008091AF039091B0039923BCF48091C30330
:1006F0009091C40399239CF48091D7039091D803DF
:1007000099237CF48091EB039091EC0399235CF4A2
:1007100082E00E94610380E0089581E0089581E015
:10072000089581E0089581E00895BF92CF92DF920D
:10073000EF92FF920F931F93CF93DF931F92CDB74A
:10074000DEB719820F2EFFEAEF2EF3E0FF2EF02D19
:1007500010E00F2EF3E0BF2EF02D0F2EF3E0CF2E82
:10076000F4E0DF2EF02D00E0F601828190E0F70149
:10077000208131812817390721F4812F0E94E1005F
:10078000B02E1F5FF4E1EF0EF11C143069F7B110C9
:100790000BC0E0911904F0911A040680F781E02D56
:1007A00085E094E00995B82E0E9470030FEF13E0E6
:1007B00083E0F801808380E18183B982CE010196D4
:1007C0009383828366E574E0C8010E94C606F8013F
:1007D000608170E0E0911B04F0911C040280F381C1
:1007E000E02D86E594E009950F90DF91CF911F9160
:1007F0000F91FF90EF90DF90CF90BF9008950097FA
:1008000049F090931A04809319040E94C80081E073
:100810000E9461030895EF92FF920F931F93CF936D
:10082000DF9300D01F92CDB7DEB7CE0101967C01D9
:1008300083E0F70111928A95E9F781E08A838B833F
:1008400082E00E9461030E9497000FEF13E086E0B0
:10085000F801818385E08083F382E28266E574E0BB
:10086000C8010E94C606F801608170E0E0911B0497
:10087000F0911C040280F381E02D86E594E0099557
:100880000F900F900F90DF91CF911F910F91FF90DC
:10089000EF9008958091050481110BC0E0911B0435
:1008A000F0911C04309779F00480F581E02D0995D2
:1008B0000AC0E0911704F0911804309721F00190DC
:1008C000F081E02D09950E9416030E94970081E0B7
:1008D0000E9461030895FF920F931F93CF93DF93BC
:1008E00000D000D0CDB7DEB71C821B82109103046C
:1008F0001550133008F441C08BEA189F112D1124B4
:10090000169509F480C0E3E0F4E090E080E02781F0
:10091000920F8F5F33961813FACF933108F45CC0AF
:100920000F2EF6E0FF2EF02D2CC015969C911597FA
:10093000948316969C911697958317969C9117977A
:1009400096838F5F139633961813EFCFE0911904B7
:10095000F0911A040480F581E02D85E094E009957A
:10096000F82E811105C089818B8383E00E94610389
:1009700060E08A810E94600204C00F2EF6E0FF2E24
:10098000F02D0FEF13E084E0F801808388E081838D
:10099000FC82CE0103969383828366E574E0C801EE
:1009A0000E94C606F801608170E0E0911B04F0919E
:1009B0001C040280F381E02D86E594E0099531C0A6
:1009C000EA8184E1E89FF0011124E155FC4F138393
:1009D000A3E0B4E080E0A9CFAE014F5F5F4FBE015E
:1009E0006E5F7F4F85E094E00E94B301F82E88236C
:1009F00039F3BECFEA8184E1E89FF0011124E1558B
:100A0000FC4F1383A3CFAE014F5F5F4FBE016E5FFC
:100A10007F4F85E094E00E94B301F82E8111A8CFAA
:100A2000E9CF0F900F900F900F90DF91CF911F9112
:100A30000F91FF9008950F931F93CF930FEA13E048
:100A4000C0E0F80180819181992374F0E09119044C
:100A5000F0911A040284F385E02D0995883021F481
:100A600061E08C2F0E946002CF5F0C5E1F4FC4308C
:100A700041F7CF911F910F9108950F931F93CF933B
:100A8000DF931F92CDB7DEB789830FEF13E083E0CA
:100A9000F801808381E18183CE0101969383828373
:100AA00066E574E0C8010E94C606F801608170E046
:100AB000E0911B04F0911C040280F381E02D86E597
:100AC00094E009950F90DF91CF911F910F910895B8
:100AD000CF93DF930E94C500EC010E94900081112A
:100AE00006C08CE00E943D050E94970045C084E04E
:100AF000EFEFF3E0DF011D928A95E9F763E074E020
:100B0000CE010E941F068F3FBFEF9B07A9F12091E6
:100B10001D042250223010F5FC013197E231F1051D
:100B2000C8F4EC5CFF4F0C943C0F0E94F60024C00C
:100B30000E945D0121C00E946B041EC00E949503AB
:100B40001BC00E940B0418C00E94130215C00E9413
:100B50004A0412C08EE00E943D050EC0853091050A
:100B600019F40E940B0408C0429719F40E944A0429
:100B700003C08FE00E943D05DF91CF910895CF9390
:100B8000DF93CDB7DEB764970FB6F894DEBF0FBE24
:100B9000CDBFE0911B04F0911C040190F081E02D89
:100BA00064E170E0CE0101960995853130F08CE06A
:100BB0000E943D050E94970014C0882391F0682F81
:100BC000CE0101960E94A100811109C00E948700F8
:100BD000882339F00E9468050E94970002C00E9495
:100BE0003D0564960FB6F894DEBF0FBECDBFDF9112
:100BF000CF910895009711F120911B0430911C04AE
:100C00008217930749F090931C0480931B040E9461
:100C1000970081E00E94610380911D04882371F098
:100C200080911B0490911C04892B11F00E94BF0538
:100C300080911D04833011F40E941B050895CF9309
:100C4000DF93EC01DB0184E1FB0111928A95E9F766
:100C500088818C93998111969C931197492F50E02C
:100C6000FA013197E231F10508F08BC0EA5BFF4FE2
:100C70000C943C0F9D012E5F3F4F83E0F9011192D0
:100C80008A95E9F78A8112968C9312978B81139635
:100C90008C9313978C8114968C9370C022E1AD01D4
:100CA0004E5F5F4FFA0111922A95E9F72A81129659
:100CB0002C9312979E012C5F3F4F4B8113964C93C0
:100CC0001397482F50E044505109141615060CF0A4
:100CD00055C0E901FD013496A80FB11D899181939A
:100CE000EA17FB07D9F74AC09D012E5F3F4F82E10B
:100CF000F90111928A95E9F78A8112968C931297DD
:100D00008B8113968C9313978C8114968C931497E4
:100D1000FE0135966496208115962C9315972181B6
:100D200016962C931697228117962C931797339625
:100D30001396EC17FD0779F721C09D012E5F3F4FF9
:100D400083E0F90111928A95E9F78A8112968C93D2
:100D500012978B8113968C9313978C8114968C9396
:100D60000DC012961C9212978A8112968C9306C01F
:100D700012961C9212978A8112968C93892F90E07A
:100D800002C08FEF9FEFDF91CF910895CF93DF9354
:100D9000EC01DB018881853108F0A1C08C93898149
:100DA00011968C931197E9814E2F50E0FA013297FA
:100DB000E031F10508F096C0E85AFF4F0C943C0F63
:100DC0004881842F90E00297181619060CF08DC008
:100DD0001296AC0120E030E0EA81FB81E20FF31FC4
:100DE00080818D932F5F3F4F24173507A9F780E04F
:100DF00090E080C0EA81FB81808112968C9380E034
:100E000090E078C04A815B81FA01808112968C93D0
:100E10001297818113968C931397CD0105962281A9
:100E200014962C933881632F70E065507109161663
:100E300017060CF05DC03396DC01232F30E0225002
:100E40003109240F351F81918D93E217F307D9F7EC
:100E500080E090E04FC0EA81FB81808112968C9304
:100E60001297818113968C931397828114968C9399
:100E700080E090E03FC0EA81FB81808112968C93F4
:100E80001297818113968C9380E090E033C0EA81C1
:100E9000FB81808112968C9380E090E02BC0EA81E8
:100EA000FB81808112968C931297818113968C938B
:100EB0001397828114968C9380E090E01BC0EA81A6
:100EC000FB81808112968C931297818113968C936B
:100ED0001397828114968C9380E090E00BC08FEF83
:100EE0009FEF08C08FEF9FEF05C080E090E002C049
:100EF00080E090E0DF91CF910895CF93DF93CDB75D
:100F0000DEB764970FB6F894DEBF0FBECDBF94E195
:100F1000E8E0F1E0DE01119601900D929A95E1F77B
:100F2000E1E0F0E0EC0FFD1FE80FF11D9081FB0107
:100F30009083883030F48BE290E09283818380E06C
:100F400013C08E3038F485E290E0FB0192838183F8
:100F500080E00AC0843138F488E290E0FB0192839B
:100F6000818380E001C083E064960FB6F894DEBF11
:100F70000FBECDBFDF91CF910895FC012181328159
:100F8000908190FD06C080E08F5F969590FFFCCF2A
:100F900001C080E02B32310559F02532310511F4C2
:100FA000885F08952832310511F4825F08958FEF2C
:100FB00008950F931F93CF93DF93EC01F894009162
:100FC0006D0410916E040E94BD071F928F938CE1F7
:100FD00091E09F938F93F801099588811F928F93D9
:100FE0008A818F9389818F9383E391E09F938F937D
:100FF000E0916D04F0916E040995CE010E94BD0749
:10100000E82FF0E0EE0FFF1FE25EFB4F81E090E083
:101010009183808378948DB79EB70A960FB6F89423
:101020009EBF0FBE8DBFDF91CF911F910F9108958D
:10103000EF92FF920F931F93CF93DF93C82FD62F7A
:101040001F926F931F928F9388E591E09F938F93E8
:10105000E0916D04F0916E0409956AE674E08C2FBE
:101060000E947D07C82F0F900F900F900F900F9048
:101070000F90811167C1F89480916B0490916C047A
:101080008B9709F0A4C04DE650E0DA012C910F2EA9
:10109000FAE6EF2EF4E0FF2EF02D01E010E0C8019B
:1010A000F701008002C0880F991F0A94E2F7822B93
:1010B0008C93A8E6B0E08C9184608C939AB19801EF
:1010C000008002C0220F331F0A94E2F7822F80951E
:1010D00089238AB92BB1C801008002C0880F991FEB
:1010E0000A94E2F7822B8BB93BB12AB19C91DA01C9
:1010F0008C911F923F931F922F931F929F931F9249
:101100008F938EE791E09F938F93E0916D04F09120
:101110006E040995E4E4F4E08281D7010C9002C0EA
:10112000000F111F0A94E2F7082B028382811F929D
:101130008F9388EB91E09F938F93E0916D04F091F2
:101140006E0409958FB71F928F938AED91E09F935C
:101150008F93E0916D04F0916E040995EDB7FEB7A1
:1011600072960FB6F894FEBF0FBEEDBFD23079F481
:10117000E4E4F4E0258181E090E000906A0402C09C
:10118000880F991F0A94E2F7822B85830FC0E4E44D
:10119000F4E0258181E090E000906A0402C0880FAD
:1011A000991F0A94E2F780958223858380914904F0
:1011B0001F928F9388EE91E09F938F93E0916D043F
:1011C000F0916E0409950F900F900F900F90809101
:1011D0006B0490916C04859709F059C0EBE6F0E040
:1011E00020810F2EFAE6EF2EF4E0FF2EF02D01E025
:1011F00010E0C801D7010C9002C0880F991F0A9413
:10120000E2F7822B8083A8E6B0E08C9181608C931A
:1012100094B19801D7010C9002C0220F331F0A9499
:10122000E2F7822F8095892384B925B1C8010C90FB
:1012300002C0880F991F0A94E2F7822B85B980813A
:101240001F928F938DEF91E09F938F93E0916D04A8
:10125000F0916E040995E4E4F4E08081D7010C90EC
:1012600002C0000F111F0A94E2F7802B80830F90B9
:101270000F900F900F90D23021F48381082B0383BD
:1012800006C0E4E4F4E083810095082303838091A1
:101290006B0490916C04889709F047C0ACE6B0E00D
:1012A0004C91EAE6F4E081E090E09C01008002C00D
:1012B000220F331F0A94E2F7242B2C93A8E6B0E008
:1012C0002C9122602C9337B1AC01008002C0440FF6
:1012D000551F0A94E2F7242F2095232327B948B1FC
:1012E0009C01008002C0220F331F0A94E2F7242BD6
:1012F00028B9A4E4B4E011962C911197008002C0A3
:10130000880F991F0A94E2F7282B11962C931197B6
:10131000D23029F4FD019481892B848306C0E4E452
:10132000F4E09481809589238483789483E192E02A
:101330009F938F93E0916D04F0916E0409950F9047
:101340000F9001C0C3E08C2FDF91CF911F910F91BF
:10135000FF90EF9008951F920F920FB60F921124F5
:101360002F933F934F935F936F937F938F939F93AD
:10137000AF93BF93CF93DF93EF93FF9389E192E015
:101380009F938F93E0916D04F0916E040995D3B112
:10139000E4E4F4E0C3818081CD27C095C823908127
:1013A00083811F929F931F928F9385E292E09F9378
:1013B0008F93E0916D04F0916E040995EDE7F4E0F0
:1013C00085E290E092838183C0831F92CF931F9226
:1013D000DF9389E492E09F938F93E0916D04F09105
:1013E0006E0409958DB79EB70E960FB6F8949EBF02
:1013F0000FBE8DBFCC2339F0E0910601F0910701BB
:101400008DE794E00995FF91EF91DF91CF91BF9126
:10141000AF919F918F917F916F915F914F913F918C
:101420002F910F900FBE0F901F9018951F920F9243
:101430000FB60F9211242F933F934F935F936F93A7
:101440007F938F939F93AF93BF93CF93EF93FF932C
:1014500085E692E09F938F93E0916D04F0916E0486
:10146000099596B1E4E4F4E0C4818181C927C0956F
:10147000C823EDE7F4E028E230E032832183C08323
:101480001F92CF931F929F9381E792E09F938F9338
:10149000E0916D04F0916E0409958DB79EB70896A2
:1014A0000FB6F8949EBF0FBE8DBFCC2339F0E091EC
:1014B0000601F09107018DE794E00995FF91EF9106
:1014C000CF91BF91AF919F918F917F916F915F91DC
:1014D0004F913F912F910F900FBE0F901F90189535
:1014E0001F920F920FB60F9211242F933F934F9399
:1014F0005F936F937F938F939F93AF93BF93EF937C
:10150000FF938DE892E09F938F93E0916D04F091AB
:101510006E04099589B1E4E4F4E09581228189277C
:1015200080958223EDE7F4E02BE230E032832183E3
:1015300080830F900F90882339F0E0910601F0919D
:1015400007018DE794E00995FF91EF91BF91AF916D
:101550009F918F917F916F915F914F913F912F91CB
:101560000F900FBE0F901F901895CF93FC016181D3
:1015700080810E941808C82F882369F089E992E0C9
:101580009F938F93E0916D04F0916E0409950F90F5
:101590000F90C3E00BC08DEA92E09F938F93E09190
:1015A0006D04F0916E0409950F900F908C2FCF91E0
:1015B00008950F931F93CF93DF9300D01F92CDB761
:1015C000DEB78431E8F48B01BE016F5F7F4F0E946C
:1015D0007D07EA81FB813297808190E0098002C01B
:1015E000959587950A94E2F780FF05C082E0F8019F
:1015F000808380E006C081E0F801808380E001C044
:1016000083E00F900F900F90DF91CF911F910F917A
:1016100008958431C0F4F89490E0FC01EE0FFF1FB0
:10162000E25EFB4F208131812115310539F0880FB1
:10163000991FFC01E25EFB4F118210827894232BEC
:1016400021F088E0089583E0089587E00895CF931E
:10165000DF93D82F6AE674E00E947D07C82F8111BE
:10166000CDC01F92DF9380916C048F9380916B04A7
:101670008F9380916A048F9383EC92E09F938F9372
:10168000E0916D04F0916E0409958DB79EB70796B1
:101690000FB6F8949EBF0FBE8DBF80916B049091E2
:1016A0006C048B9791F5ADE6B0E03C91EAE6F4E08E
:1016B00081E090E0AC01008002C0440F551F0A9405
:1016C000E2F7242F209523232C93A8E6B0E02C9159
:1016D0002B7F2C933BB1AC01008002C0440F551FFF
:1016E0000A94E2F7242F209523232BB9A4E4B4E035
:1016F00012962C911297008002C0880F991F0A94AD
:10170000E2F78095822312968C9380916B049091DE
:101710006C04859779F5ABE6B0E03C91EAE6F4E03D
:1017200081E090E0AC01008002C0440F551F0A9494
:10173000E2F7242F209523232C93A8E6B0E02C91E8
:101740002E7F2C9335B1AC01008002C0440F551F91
:101750000A94E2F7242F2095232325B9A4E4B4E0CA
:101760002C91008002C0880F991F0A94E2F780959F
:1017700082238C9380916B0490916C04889791F5EF
:10178000ACE6B0E03C91EAE6F4E081E090E0AC0148
:10179000008002C0440F551F0A94E2F7242F2095C1
:1017A00023232C93A8E6B0E02C912D7F2C9338B105
:1017B000AC01008002C0440F551F0A94E2F7242FA9
:1017C0002095232328B9A4E4B4E011962C91119715
:1017D000008002C0880F991F0A94E2F78095822347
:1017E00011968C9388EE92E09F938F93E0916D0415
:1017F000F0916E0409950F900F9001C0C3E08C2FFB
:10180000DF91CF910895FC0180810E94270B0895FC
:10181000EF92FF920F931F93CF93DF93EC018B0115
:10182000F89480E894E00E940E0E7C0178940817EA
:10183000190788F4F89480E894E00E94A00D41E034
:1018400050E060E071E080E894E00E94630D7894DD
:1018500080E090E015C0009789F08E01080F191FF5
:10186000F894BE0180E894E00E94DB0D7894219604
:10187000C017D107A9F78E2D9F2D02C080E090E000
:10188000DF91CF911F910F91FF90EF900895F89401
:101890009093C5008093C4008EE08093C200E1EC79
:1018A000F0E080818869808341E050E060E071E091
:1018B00080E894E00E94630D78940895EEE8F4E0E7
:1018C00086E0DF011D928A95E9F788E09CE091832C
:1018D00080838CE79CE09383828380E090E00E9489
:1018E000470C8EE894E00895E0ECF0E0908195FFDD
:1018F000FDCF8093C6000895EF92FF920F931F9340
:10190000CF93DF93EC017B0185E093E09F938F936E
:10191000E0916D04F0916E0409950F900F90E11421
:10192000F104C1F0EC0EFD1E0CE013E088811F9263
:101930008F931F930F93E0916D04F0916E040995BE
:1019400089910E94740C0F900F900F900F90EC16DD
:10195000FD0661F78DE393E09F938F93E0916D0413
:10196000F0916E0409950F900F90DF91CF911F9128
:101970000F91FF90EF900895CF93DF93EC01888152
:10198000882331F021960E94740C89918111FBCF3C
:10199000DF91CF9108951F920F920FB60F921124ED
:1019A0002F933F934F935F936F937F938F939F9367
:1019B000AF93BF93EF93FF9382E193E09F938F9355
:1019C000E0916D04F0916E0409950F900F90FF91D6
:1019D000EF91BF91AF919F918F917F916F915F91A7
:1019E0004F913F912F910F900FBE0F901F90189520
:1019F0001F920F920FB60F9211242F933F934F9384
:101A00005F936F937F938F939F93AF93BF93EF9366
:101A1000FF93CF93DF931F92CDB7DEB78091C000C5
:101A200083FF0BC08BE293E09F938F93E0916D0453
:101A3000F0916E0409950F900F908091C6008983F4
:101A4000F894BE016F5F7F4F80E894E00E94A60D7E
:101A500078940F90DF91CF91FF91EF91BF91AF916B
:101A60009F918F917F916F915F914F913F912F91B6
:101A70000F900FBE0F901F9018951F920F920FB6E8
:101A80000F9211242F933F934F935F936F937F9304
:101A90008F939F93AF93BF93EF93FF9380E493E073
:101AA0000E94BC0CFF91EF91BF91AF919F918F91DC
:101AB0007F916F915F914F913F912F910F900FBE4A
:101AC0000F901F901895CF92DF92EF92FF920F9395
:101AD0001F93CF93DF93EC016B017A01649F800128
:101AE000659F100D749F100D1124C8010E94420FB4
:101AF00099838883892B59F48AE493E09F938F9389
:101B0000E0916D04F0916E0409950F900F9088811B
:101B10009981080F191F1B830A83DD82CC821F82E3
:101B20001E82F986E8869B878A879D878C87DF914E
:101B3000CF911F910F91FF90EF90DF90CF9008957C
:101B4000FC01808191810E94DA0F0895CF93DF9389
:101B5000EC012E813F818C819D812817390761F42A
:101B60008AE593E09F938F93E0916D04F0916E046A
:101B700009950F900F901CC0488559858A859B85D3
:101B80000E9463102A853B8588859985820F931F63
:101B90009B878A872A813B818217930721F488815A
:101BA00099819B878A878E819F8101969F838E83EF
:101BB000DF91CF910895CF93DF93EC01CB012E817C
:101BC0003F81232B61F48BE693E09F938F93E09109
:101BD0006D04F0916E0409950F900F901CC06C85F8
:101BE0007D85488559850E9463102C853D858885B3
:101BF0009985820F931F9D878C872A813B8182174D
:101C0000930721F4888199819D878C878E819F819C
:101C100001979F838E83DF91CF910895FC01868188
:101C200097810895CF93DF93CDB7DEB780E090E042
:101C3000DF91CF91089582E19EE090936E048093AE
:101C40006D0408958CE08093B8000895ECEBF0E00B
:101C5000108294EA908390819923ECF79091B900D7
:101C6000987F9830A1F48093BB0084E88093BC00F7
:101C7000ECEBF0E080818823ECF79091B900987F3D
:101C8000983139F081E0903429F480E0089581E0C2
:101C9000089580E008958093BB0084E88093BC00A1
:101CA000ECEBF0E080818823ECF79091B900987F0D
:101CB00081E0983209F480E0089584EC8093BC00C0
:101CC000ECEBF0E080818823ECF78091BB00089575
:101CD00084E88093BC00ECEBF0E080818823ECF793
:101CE0008091BB000895CF92DF92FF920F931F93D4
:101CF000CF93DF93C62F6A0189010E94260EF82E2A
:101D0000811115C08C2F0E944B0E0115110559F041
:101D1000E6010C0D1D1D89910E944B0E81110AC018
:101D2000C017D107C1F784E98093BC0005C0FF2428
:101D3000F39402C0FF24F3948F2DDF91CF911F9174
:101D40000F91FF90DF90CF900895880F0E94730E3F
:101D500091E0811101C090E0892F0895AF92BF9268
:101D6000DF92EF92FF920F931F93CF93DF93182F81
:101D7000062F5A01E9010E94260E811122C0802FF0
:101D80000E944B0E812F81600E94260ED82E811159
:101D90001BC08E010150110951F0E5017501E00EE3
:101DA000F11E0E945D0E8993EC16FD06D1F7E50148
:101DB000C00FD11F0E94680E888384E98093BC0005
:101DC00005C0DD24D39402C0DD24D3948D2DDF9192
:101DD000CF911F910F91FF90EF90DF90BF90AF9048
:101DE0000895880F0E94AE0E91E0811101C090E02D
:101DF000892F0895EAE4F4E08CE0DF011D928A95D2
:101E0000E9F781EF9EE09183808385EA9EE09383EA
:101E1000828389ED9AE09187808785EB9AE09583AC
:101E2000848383E09CE09783868389E09BE09387AB
:101E30008287CF0108958FE694E090939B0480936E
:101E40009A040E941B0E0E94220E0E945E0CEC015E
:101E50000E94FA0E0E94FF0389E893E09F938F93FC
:101E600080916D0490916E04FC0109950F900F9084
:101E7000CE010E94FA05FCCFEE0FFF1F0590F491F2
:101E8000E02D09940F931F93CF93DF938230910538
:101E900010F482E090E0E0919604F091970420E045
:101EA00030E0A0E0B0E0309719F14081518102812B
:101EB000138148175907C8F08417950769F41097DC
:101EC00031F012960C93129713961C9327C000932F
:101ED00096041093970422C02115310519F042177A
:101EE000530718F49A01BD01EF01DF01F801DBCFC0
:101EF00021153105F9F0281B390B2430310580F408
:101F00008A819B816115710521F0FB019383828396
:101F100004C09093970480939604FE01329644C0C7
:101F2000FE01E20FF31F819391932250310939830F
:101F300028833AC02091940430919504232B41F4D6
:101F40002091020130910301309395042093940471
:101F500020910001309101012115310541F42DB787
:101F60003EB74091040150910501241B350BE091CF
:101F70009404F0919504E217F307A0F42E1B3F0B95
:101F80002817390778F0AC014E5F5F4F24173507EB
:101F900048F04E0F5F1F5093950440939404819333
:101FA000919302C0E0E0F0E0CF01DF91CF911F916B
:101FB0000F910895CF93DF93009709F481C0FC013E
:101FC000329713821282A0919604B09197041097D1
:101FD00081F420813181820F931F209194043091EC
:101FE00095042817390751F5F0939504E09394046C
:101FF00067C0ED0120E030E0CE17DF0740F44A81F2
:102000005B819E0141155105F1F0EA01F5CFD383C3
:10201000C28340815181840F951FC817D90759F495
:1020200088819981840F951F0296918380838A818C
:102030009B81938382832115310529F4F0939704C2
:10204000E09396043DC0E901FB83EA8349915991ED
:10205000C40FD51FEC17FD0761F480819181840FB7
:10206000951F0296E90199838883828193819B83DE
:102070008A83E0E0F0E012968D919C91139700978F
:1020800019F0FD01DC01F7CF8D919C9111979D0115
:102090002E5F3F4F820F931F20919404309195043F
:1020A0002817390769F4309729F410929704109291
:1020B000960402C013821282B0939504A0939404F4
:1020C000DF91CF910895FB01DC0102C001900D92D8
:0C20D00041505040D8F70895F894FFCF1D
:1020DC0000009E042000D907000102030405060736
:1020EC00000102030405000102030405696E74205B
:1020FC0068616E646C65722070696E3A202564208C
:10210C000A0D00696E745F68616E646C6572207094
:10211C006F72743A20307825782C2070696E3A20D2
:10212C0030782578200A0D006176725F696E7465CF
:10213C0072727570745F696E69742070696E3A2082
:10214C00256420706F6C3A202564200A0D005043E2
:10215C004D534B32203D20307825782C205043496C
:10216C004352203D20307825782C20444452442082
:10217C003D20307825782C20504F525444203D205F
:10218C0030782578200A0D00656E61626C65645F9D
:10219C00696E74732E706F7274645F6D61736B20F3
:1021AC003D2030782578200A0D0073726567203D3C
:1021BC0020307825780A0D00706F7274645F736537
:1021CC006E7365203D20307825780A0D00504F52F3
:1021DC0054422050434D534B30203D2025780A0D5E
:1021EC000A0A007365692E2E0049535220504F5233
:1021FC0054420A0D00706F7274625F73656E736582
:10220C00203D20307825782070625F6D61736B20E3
:10221C003D20307825780A0D0070696E62203D20D3
:10222C003078257820696E7470696E203D20307886
:10223C0025780D0A0049535220504F5254430A0D31
:10224C000070696E63203D203078257820696E74AB
:10225C0070696E203D20307825780D0A0049535264
:10226C0020504F5254440A0D00656E61626C655FDC
:10227C00696E745F6661696C65640D0A00656E61F8
:10228C00626C655F696E745F737563636573732EDF
:10229C000D0A0044697361626C6520696E74657225
:1022AC007275707420706F72743D25642C20706987
:1022BC006E203D2025640D0064697361626C656459
:1022CC0020696E74657272757074207375636365C2
:1022DC0073730A0D0073656E643A2000252E3278F4
:1022EC0020005350495F5354435F766563742074E8
:1022FC0072696767657265640D0A007278206461A3
:10230C007461206F7665722072756E2E200A0D0036
:10231C00626164206973720D0A006D616C6C6F638D
:10232C00206661696C65640A0D006275666665728B
:10233C002066756C6C2E2E2E0A0D0063625F706F1A
:10234C00705F66726F6E743A2063625F636F756E56
:10235C0074203D3D20300D0A000A0A0A0D537461A9
:0A236C00727465642E2E2E0A0D0017
:00000001FF
